{
  "contractName": "NFT",
  "abi": [
    {
      "inputs": [
        {
          "internalType": "address",
          "name": "_marketplaceContract",
          "type": "address"
        }
      ],
      "stateMutability": "nonpayable",
      "type": "constructor"
    },
    {
      "anonymous": false,
      "inputs": [
        {
          "indexed": true,
          "internalType": "address",
          "name": "owner",
          "type": "address"
        },
        {
          "indexed": true,
          "internalType": "address",
          "name": "approved",
          "type": "address"
        },
        {
          "indexed": true,
          "internalType": "uint256",
          "name": "tokenId",
          "type": "uint256"
        }
      ],
      "name": "Approval",
      "type": "event"
    },
    {
      "anonymous": false,
      "inputs": [
        {
          "indexed": true,
          "internalType": "address",
          "name": "owner",
          "type": "address"
        },
        {
          "indexed": true,
          "internalType": "address",
          "name": "operator",
          "type": "address"
        },
        {
          "indexed": false,
          "internalType": "bool",
          "name": "approved",
          "type": "bool"
        }
      ],
      "name": "ApprovalForAll",
      "type": "event"
    },
    {
      "anonymous": false,
      "inputs": [
        {
          "indexed": false,
          "internalType": "uint256",
          "name": "",
          "type": "uint256"
        }
      ],
      "name": "NFTMinted",
      "type": "event"
    },
    {
      "anonymous": false,
      "inputs": [
        {
          "indexed": true,
          "internalType": "address",
          "name": "from",
          "type": "address"
        },
        {
          "indexed": true,
          "internalType": "address",
          "name": "to",
          "type": "address"
        },
        {
          "indexed": true,
          "internalType": "uint256",
          "name": "tokenId",
          "type": "uint256"
        }
      ],
      "name": "Transfer",
      "type": "event"
    },
    {
      "inputs": [
        {
          "internalType": "address",
          "name": "to",
          "type": "address"
        },
        {
          "internalType": "uint256",
          "name": "tokenId",
          "type": "uint256"
        }
      ],
      "name": "approve",
      "outputs": [],
      "stateMutability": "nonpayable",
      "type": "function"
    },
    {
      "inputs": [
        {
          "internalType": "address",
          "name": "owner",
          "type": "address"
        }
      ],
      "name": "balanceOf",
      "outputs": [
        {
          "internalType": "uint256",
          "name": "",
          "type": "uint256"
        }
      ],
      "stateMutability": "view",
      "type": "function",
      "constant": true
    },
    {
      "inputs": [
        {
          "internalType": "uint256",
          "name": "tokenId",
          "type": "uint256"
        }
      ],
      "name": "getApproved",
      "outputs": [
        {
          "internalType": "address",
          "name": "",
          "type": "address"
        }
      ],
      "stateMutability": "view",
      "type": "function",
      "constant": true
    },
    {
      "inputs": [
        {
          "internalType": "address",
          "name": "owner",
          "type": "address"
        },
        {
          "internalType": "address",
          "name": "operator",
          "type": "address"
        }
      ],
      "name": "isApprovedForAll",
      "outputs": [
        {
          "internalType": "bool",
          "name": "",
          "type": "bool"
        }
      ],
      "stateMutability": "view",
      "type": "function",
      "constant": true
    },
    {
      "inputs": [],
      "name": "name",
      "outputs": [
        {
          "internalType": "string",
          "name": "",
          "type": "string"
        }
      ],
      "stateMutability": "view",
      "type": "function",
      "constant": true
    },
    {
      "inputs": [
        {
          "internalType": "uint256",
          "name": "tokenId",
          "type": "uint256"
        }
      ],
      "name": "ownerOf",
      "outputs": [
        {
          "internalType": "address",
          "name": "",
          "type": "address"
        }
      ],
      "stateMutability": "view",
      "type": "function",
      "constant": true
    },
    {
      "inputs": [
        {
          "internalType": "address",
          "name": "from",
          "type": "address"
        },
        {
          "internalType": "address",
          "name": "to",
          "type": "address"
        },
        {
          "internalType": "uint256",
          "name": "tokenId",
          "type": "uint256"
        }
      ],
      "name": "safeTransferFrom",
      "outputs": [],
      "stateMutability": "nonpayable",
      "type": "function"
    },
    {
      "inputs": [
        {
          "internalType": "address",
          "name": "from",
          "type": "address"
        },
        {
          "internalType": "address",
          "name": "to",
          "type": "address"
        },
        {
          "internalType": "uint256",
          "name": "tokenId",
          "type": "uint256"
        },
        {
          "internalType": "bytes",
          "name": "data",
          "type": "bytes"
        }
      ],
      "name": "safeTransferFrom",
      "outputs": [],
      "stateMutability": "nonpayable",
      "type": "function"
    },
    {
      "inputs": [
        {
          "internalType": "address",
          "name": "operator",
          "type": "address"
        },
        {
          "internalType": "bool",
          "name": "approved",
          "type": "bool"
        }
      ],
      "name": "setApprovalForAll",
      "outputs": [],
      "stateMutability": "nonpayable",
      "type": "function"
    },
    {
      "inputs": [
        {
          "internalType": "bytes4",
          "name": "interfaceId",
          "type": "bytes4"
        }
      ],
      "name": "supportsInterface",
      "outputs": [
        {
          "internalType": "bool",
          "name": "",
          "type": "bool"
        }
      ],
      "stateMutability": "view",
      "type": "function",
      "constant": true
    },
    {
      "inputs": [],
      "name": "symbol",
      "outputs": [
        {
          "internalType": "string",
          "name": "",
          "type": "string"
        }
      ],
      "stateMutability": "view",
      "type": "function",
      "constant": true
    },
    {
      "inputs": [
        {
          "internalType": "uint256",
          "name": "tokenId",
          "type": "uint256"
        }
      ],
      "name": "tokenURI",
      "outputs": [
        {
          "internalType": "string",
          "name": "",
          "type": "string"
        }
      ],
      "stateMutability": "view",
      "type": "function",
      "constant": true
    },
    {
      "inputs": [
        {
          "internalType": "address",
          "name": "from",
          "type": "address"
        },
        {
          "internalType": "address",
          "name": "to",
          "type": "address"
        },
        {
          "internalType": "uint256",
          "name": "tokenId",
          "type": "uint256"
        }
      ],
      "name": "transferFrom",
      "outputs": [],
      "stateMutability": "nonpayable",
      "type": "function"
    },
    {
      "inputs": [
        {
          "internalType": "string",
          "name": "_tokenURI",
          "type": "string"
        }
      ],
      "name": "mint",
      "outputs": [],
      "stateMutability": "nonpayable",
      "type": "function"
    }
  ],
  "bytecode": "0x60806040523480156200001157600080fd5b5060405162001b7538038062001b758339810160408190526200003491620000d1565b6040518060400160405280601581526020017f426f726564205065747320596163687420436c75620000000000000000000000815250604051806040016040528060048152602001634250594360e01b8152508160009081620000989190620001a8565b506001620000a78282620001a8565b5050600880546001600160a01b0319166001600160a01b0393909316929092179091555062000274565b600060208284031215620000e457600080fd5b81516001600160a01b0381168114620000fc57600080fd5b9392505050565b634e487b7160e01b600052604160045260246000fd5b600181811c908216806200012e57607f821691505b6020821081036200014f57634e487b7160e01b600052602260045260246000fd5b50919050565b601f821115620001a357600081815260208120601f850160051c810160208610156200017e5750805b601f850160051c820191505b818110156200019f578281556001016200018a565b5050505b505050565b81516001600160401b03811115620001c457620001c462000103565b620001dc81620001d5845462000119565b8462000155565b602080601f831160018114620002145760008415620001fb5750858301515b600019600386901b1c1916600185901b1785556200019f565b600085815260208120601f198616915b82811015620002455788860151825594840194600190910190840162000224565b5085821015620002645787850151600019600388901b60f8161c191681555b5050505050600190811b01905550565b6118f180620002846000396000f3fe608060405234801561001057600080fd5b50600436106100ea5760003560e01c806370a082311161008c578063b88d4fde11610066578063b88d4fde146101e1578063c87b56dd146101f4578063d85d3d2714610207578063e985e9c51461021a57600080fd5b806370a08231146101a557806395d89b41146101c6578063a22cb465146101ce57600080fd5b8063095ea7b3116100c8578063095ea7b31461015757806323b872dd1461016c57806342842e0e1461017f5780636352211e1461019257600080fd5b806301ffc9a7146100ef57806306fdde0314610117578063081812fc1461012c575b600080fd5b6101026100fd3660046113b9565b610256565b60405190151581526020015b60405180910390f35b61011f6102a8565b60405161010e9190611426565b61013f61013a366004611439565b61033a565b6040516001600160a01b03909116815260200161010e565b61016a61016536600461146e565b610361565b005b61016a61017a366004611498565b610499565b61016a61018d366004611498565b610510565b61013f6101a0366004611439565b61052b565b6101b86101b33660046114d4565b610590565b60405190815260200161010e565b61011f61062a565b61016a6101dc3660046114ef565b610639565b61016a6101ef3660046115b7565b610648565b61011f610202366004611439565b6106c6565b61016a610215366004611633565b6107d6565b61010261022836600461167c565b6001600160a01b03918216600090815260056020908152604080832093909416825291909152205460ff1690565b60006001600160e01b031982166380ac58cd60e01b148061028757506001600160e01b03198216635b5e139f60e01b145b806102a257506301ffc9a760e01b6001600160e01b03198316145b92915050565b6060600080546102b7906116af565b80601f01602080910402602001604051908101604052809291908181526020018280546102e3906116af565b80156103305780601f1061030557610100808354040283529160200191610330565b820191906000526020600020905b81548152906001019060200180831161031357829003601f168201915b5050505050905090565b600061034582610853565b506000908152600460205260409020546001600160a01b031690565b600061036c8261052b565b9050806001600160a01b0316836001600160a01b0316036103de5760405162461bcd60e51b815260206004820152602160248201527f4552433732313a20617070726f76616c20746f2063757272656e74206f776e656044820152603960f91b60648201526084015b60405180910390fd5b336001600160a01b038216148061041857506001600160a01b038116600090815260056020908152604080832033845290915290205460ff165b61048a5760405162461bcd60e51b815260206004820152603d60248201527f4552433732313a20617070726f76652063616c6c6572206973206e6f7420746f60448201527f6b656e206f776e6572206f7220617070726f76656420666f7220616c6c00000060648201526084016103d5565b61049483836108ba565b505050565b6104a33382610935565b6105055760405162461bcd60e51b815260206004820152602d60248201527f4552433732313a2063616c6c6572206973206e6f7420746f6b656e206f776e6560448201526c1c881bdc88185c1c1c9bdd9959609a1b60648201526084016103d5565b6104948383836109b3565b61049483838360405180602001604052806000815250610648565b6000818152600260205260408120546001600160a01b0316806102a25760405162461bcd60e51b815260206004820152601860248201527f4552433732313a20696e76616c696420746f6b656e204944000000000000000060448201526064016103d5565b60006001600160a01b03821661060e5760405162461bcd60e51b815260206004820152602960248201527f4552433732313a2061646472657373207a65726f206973206e6f74206120766160448201527f6c6964206f776e6572000000000000000000000000000000000000000000000060648201526084016103d5565b506001600160a01b031660009081526003602052604090205490565b6060600180546102b7906116af565b610644338383610bad565b5050565b6106523383610935565b6106b45760405162461bcd60e51b815260206004820152602d60248201527f4552433732313a2063616c6c6572206973206e6f7420746f6b656e206f776e6560448201526c1c881bdc88185c1c1c9bdd9959609a1b60648201526084016103d5565b6106c084848484610c7b565b50505050565b60606106d182610853565b600082815260066020526040812080546106ea906116af565b80601f0160208091040260200160405190810160405280929190818152602001828054610716906116af565b80156107635780601f1061073857610100808354040283529160200191610763565b820191906000526020600020905b81548152906001019060200180831161074657829003601f168201915b50505050509050600061078160408051602081019091526000815290565b90508051600003610793575092915050565b8151156107c55780826040516020016107ad9291906116e9565b60405160208183030381529060405292505050919050565b6107ce84610cf9565b949350505050565b6107e4600780546001019055565b60006107ef60075490565b90506107fb3382610d6d565b6108058183610d87565b60085461081c906001600160a01b03166001610639565b6040518181527fd9dc24857f317ed9abbbb42e920ede0104231eb1d3d70236a74887ffaf1598689060200160405180910390a15050565b6000818152600260205260409020546001600160a01b03166108b75760405162461bcd60e51b815260206004820152601860248201527f4552433732313a20696e76616c696420746f6b656e204944000000000000000060448201526064016103d5565b50565b6000818152600460205260409020805473ffffffffffffffffffffffffffffffffffffffff19166001600160a01b03841690811790915581906108fc8261052b565b6001600160a01b03167f8c5be1e5ebec7d5bd14f71427d1e84f3dd0314c0f7b2291e5b200ac8c7c3b92560405160405180910390a45050565b6000806109418361052b565b9050806001600160a01b0316846001600160a01b0316148061098857506001600160a01b0380821660009081526005602090815260408083209388168352929052205460ff165b806107ce5750836001600160a01b03166109a18461033a565b6001600160a01b031614949350505050565b826001600160a01b03166109c68261052b565b6001600160a01b031614610a2a5760405162461bcd60e51b815260206004820152602560248201527f4552433732313a207472616e736665722066726f6d20696e636f72726563742060448201526437bbb732b960d91b60648201526084016103d5565b6001600160a01b038216610a8c5760405162461bcd60e51b8152602060048201526024808201527f4552433732313a207472616e7366657220746f20746865207a65726f206164646044820152637265737360e01b60648201526084016103d5565b610a998383836001610e29565b826001600160a01b0316610aac8261052b565b6001600160a01b031614610b105760405162461bcd60e51b815260206004820152602560248201527f4552433732313a207472616e736665722066726f6d20696e636f72726563742060448201526437bbb732b960d91b60648201526084016103d5565b6000818152600460209081526040808320805473ffffffffffffffffffffffffffffffffffffffff199081169091556001600160a01b0387811680865260038552838620805460001901905590871680865283862080546001019055868652600290945282852080549092168417909155905184937fddf252ad1be2c89b69c2b068fc378daa952ba7f163c4a11628f55a4df523b3ef91a4505050565b816001600160a01b0316836001600160a01b031603610c0e5760405162461bcd60e51b815260206004820152601960248201527f4552433732313a20617070726f766520746f2063616c6c65720000000000000060448201526064016103d5565b6001600160a01b03838116600081815260056020908152604080832094871680845294825291829020805460ff191686151590811790915591519182527f17307eab39ab6107e8899845ad3d59bd9653f200f220920489ca2b5937696c31910160405180910390a3505050565b610c868484846109b3565b610c9284848484610eb1565b6106c05760405162461bcd60e51b815260206004820152603260248201527f4552433732313a207472616e7366657220746f206e6f6e20455243373231526560448201527131b2b4bb32b91034b6b83632b6b2b73a32b960711b60648201526084016103d5565b6060610d0482610853565b6000610d1b60408051602081019091526000815290565b90506000815111610d3b5760405180602001604052806000815250610d66565b80610d4584610ffd565b604051602001610d569291906116e9565b6040516020818303038152906040525b9392505050565b61064482826040518060200160405280600081525061109d565b6000828152600260205260409020546001600160a01b0316610e115760405162461bcd60e51b815260206004820152602e60248201527f45524337323155524953746f726167653a2055524920736574206f66206e6f6e60448201527f6578697374656e7420746f6b656e00000000000000000000000000000000000060648201526084016103d5565b60008281526006602052604090206104948282611766565b60018111156106c0576001600160a01b03841615610e6f576001600160a01b03841660009081526003602052604081208054839290610e6990849061183c565b90915550505b6001600160a01b038316156106c0576001600160a01b03831660009081526003602052604081208054839290610ea690849061184f565b909155505050505050565b60006001600160a01b0384163b15610ff257604051630a85bd0160e11b81526001600160a01b0385169063150b7a0290610ef5903390899088908890600401611862565b6020604051808303816000875af1925050508015610f30575060408051601f3d908101601f19168201909252610f2d9181019061189e565b60015b610fd8573d808015610f5e576040519150601f19603f3d011682016040523d82523d6000602084013e610f63565b606091505b508051600003610fd05760405162461bcd60e51b815260206004820152603260248201527f4552433732313a207472616e7366657220746f206e6f6e20455243373231526560448201527131b2b4bb32b91034b6b83632b6b2b73a32b960711b60648201526084016103d5565b805181602001fd5b6001600160e01b031916630a85bd0160e11b1490506107ce565b506001949350505050565b6060600061100a8361111b565b600101905060008167ffffffffffffffff81111561102a5761102a61152b565b6040519080825280601f01601f191660200182016040528015611054576020820181803683370190505b5090508181016020015b600019017f3031323334353637383961626364656600000000000000000000000000000000600a86061a8153600a850494508461105e57509392505050565b6110a783836111fd565b6110b46000848484610eb1565b6104945760405162461bcd60e51b815260206004820152603260248201527f4552433732313a207472616e7366657220746f206e6f6e20455243373231526560448201527131b2b4bb32b91034b6b83632b6b2b73a32b960711b60648201526084016103d5565b6000807a184f03e93ff9f4daa797ed6e38ed64bf6a1f0100000000000000008310611164577a184f03e93ff9f4daa797ed6e38ed64bf6a1f010000000000000000830492506040015b6d04ee2d6d415b85acef81000000008310611190576d04ee2d6d415b85acef8100000000830492506020015b662386f26fc1000083106111ae57662386f26fc10000830492506010015b6305f5e10083106111c6576305f5e100830492506008015b61271083106111da57612710830492506004015b606483106111ec576064830492506002015b600a83106102a25760010192915050565b6001600160a01b0382166112535760405162461bcd60e51b815260206004820181905260248201527f4552433732313a206d696e7420746f20746865207a65726f206164647265737360448201526064016103d5565b6000818152600260205260409020546001600160a01b0316156112b85760405162461bcd60e51b815260206004820152601c60248201527f4552433732313a20746f6b656e20616c7265616479206d696e7465640000000060448201526064016103d5565b6112c6600083836001610e29565b6000818152600260205260409020546001600160a01b03161561132b5760405162461bcd60e51b815260206004820152601c60248201527f4552433732313a20746f6b656e20616c7265616479206d696e7465640000000060448201526064016103d5565b6001600160a01b0382166000818152600360209081526040808320805460010190558483526002909152808220805473ffffffffffffffffffffffffffffffffffffffff19168417905551839291907fddf252ad1be2c89b69c2b068fc378daa952ba7f163c4a11628f55a4df523b3ef908290a45050565b6001600160e01b0319811681146108b757600080fd5b6000602082840312156113cb57600080fd5b8135610d66816113a3565b60005b838110156113f15781810151838201526020016113d9565b50506000910152565b600081518084526114128160208601602086016113d6565b601f01601f19169290920160200192915050565b602081526000610d6660208301846113fa565b60006020828403121561144b57600080fd5b5035919050565b80356001600160a01b038116811461146957600080fd5b919050565b6000806040838503121561148157600080fd5b61148a83611452565b946020939093013593505050565b6000806000606084860312156114ad57600080fd5b6114b684611452565b92506114c460208501611452565b9150604084013590509250925092565b6000602082840312156114e657600080fd5b610d6682611452565b6000806040838503121561150257600080fd5b61150b83611452565b91506020830135801515811461152057600080fd5b809150509250929050565b634e487b7160e01b600052604160045260246000fd5b600067ffffffffffffffff8084111561155c5761155c61152b565b604051601f8501601f19908116603f011681019082821181831017156115845761158461152b565b8160405280935085815286868601111561159d57600080fd5b858560208301376000602087830101525050509392505050565b600080600080608085870312156115cd57600080fd5b6115d685611452565b93506115e460208601611452565b925060408501359150606085013567ffffffffffffffff81111561160757600080fd5b8501601f8101871361161857600080fd5b61162787823560208401611541565b91505092959194509250565b60006020828403121561164557600080fd5b813567ffffffffffffffff81111561165c57600080fd5b8201601f8101841361166d57600080fd5b6107ce84823560208401611541565b6000806040838503121561168f57600080fd5b61169883611452565b91506116a660208401611452565b90509250929050565b600181811c908216806116c357607f821691505b6020821081036116e357634e487b7160e01b600052602260045260246000fd5b50919050565b600083516116fb8184602088016113d6565b83519083019061170f8183602088016113d6565b01949350505050565b601f82111561049457600081815260208120601f850160051c8101602086101561173f5750805b601f850160051c820191505b8181101561175e5782815560010161174b565b505050505050565b815167ffffffffffffffff8111156117805761178061152b565b6117948161178e84546116af565b84611718565b602080601f8311600181146117c957600084156117b15750858301515b600019600386901b1c1916600185901b17855561175e565b600085815260208120601f198616915b828110156117f8578886015182559484019460019091019084016117d9565b50858210156118165787850151600019600388901b60f8161c191681555b5050505050600190811b01905550565b634e487b7160e01b600052601160045260246000fd5b818103818111156102a2576102a2611826565b808201808211156102a2576102a2611826565b60006001600160a01b0380871683528086166020840152508360408301526080606083015261189460808301846113fa565b9695505050505050565b6000602082840312156118b057600080fd5b8151610d66816113a356fea2646970667358221220837bc9e7254cc412d5e8653ff0720d49cb5b189cc750535b4c26e1aae326629864736f6c63430008110033",
  "immutableReferences": {},
  "source": "// SPDX-License-Identifier: MIT\npragma solidity ^0.8.17;\n\nimport \"@openzeppelin/contracts/token/ERC721/ERC721.sol\";\nimport \"@openzeppelin/contracts/token/ERC721/extensions/ERC721URIStorage.sol\";\nimport \"@openzeppelin/contracts/utils/Counters.sol\";\n\ncontract NFT is ERC721URIStorage {\n    using Counters for Counters.Counter;\n    Counters.Counter private _tokenIds;\n    address marketplaceContract;\n    event NFTMinted(uint256);\n\n    constructor(address _marketplaceContract)\n        ERC721(\"Bored Pets Yacht Club\", \"BPYC\")\n    {\n        marketplaceContract = _marketplaceContract;\n    }\n\n    function mint(string memory _tokenURI) public {\n        _tokenIds.increment();\n        uint256 newTokenId = _tokenIds.current();\n        _safeMint(msg.sender, newTokenId);\n        _setTokenURI(newTokenId, _tokenURI);\n        setApprovalForAll(marketplaceContract, true);\n        emit NFTMinted(newTokenId);\n    }\n}\n",
  "sourcePath": "/Users/matthewpryor/projects/nft-marketplace/contracts/optimism/NFT.sol",
  "compiler": {
    "name": "solc",
    "version": "0.8.17+commit.8df45f5f.Emscripten.clang"
  },
  "schemaVersion": "3.4.10",
  "updatedAt": "2022-11-28T18:46:14.857Z",
  "networkType": "ethereum",
  "devdoc": {
    "kind": "dev",
    "methods": {
      "approve(address,uint256)": {
        "details": "See {IERC721-approve}."
      },
      "balanceOf(address)": {
        "details": "See {IERC721-balanceOf}."
      },
      "getApproved(uint256)": {
        "details": "See {IERC721-getApproved}."
      },
      "isApprovedForAll(address,address)": {
        "details": "See {IERC721-isApprovedForAll}."
      },
      "name()": {
        "details": "See {IERC721Metadata-name}."
      },
      "ownerOf(uint256)": {
        "details": "See {IERC721-ownerOf}."
      },
      "safeTransferFrom(address,address,uint256)": {
        "details": "See {IERC721-safeTransferFrom}."
      },
      "safeTransferFrom(address,address,uint256,bytes)": {
        "details": "See {IERC721-safeTransferFrom}."
      },
      "setApprovalForAll(address,bool)": {
        "details": "See {IERC721-setApprovalForAll}."
      },
      "supportsInterface(bytes4)": {
        "details": "See {IERC165-supportsInterface}."
      },
      "symbol()": {
        "details": "See {IERC721Metadata-symbol}."
      },
      "tokenURI(uint256)": {
        "details": "See {IERC721Metadata-tokenURI}."
      },
      "transferFrom(address,address,uint256)": {
        "details": "See {IERC721-transferFrom}."
      }
    },
    "version": 1
  },
  "userdoc": {
    "kind": "user",
    "methods": {},
    "version": 1
  }
}